{
  "_format": "hh-sol-artifact-1",
  "contractName": "MCV2_ZapV2",
  "sourceName": "contracts/MCV2_ZapV2.sol",
  "abi": [
    {
      "inputs": [
        {
          "internalType": "address",
          "name": "bondAddress",
          "type": "address"
        },
        {
          "internalType": "address",
          "name": "wethAddress",
          "type": "address"
        },
        {
          "internalType": "address",
          "name": "universalRouterAddress",
          "type": "address"
        }
      ],
      "stateMutability": "nonpayable",
      "type": "constructor"
    },
    {
      "inputs": [
        {
          "internalType": "address",
          "name": "target",
          "type": "address"
        }
      ],
      "name": "AddressEmptyCode",
      "type": "error"
    },
    {
      "inputs": [
        {
          "internalType": "address",
          "name": "account",
          "type": "address"
        }
      ],
      "name": "AddressInsufficientBalance",
      "type": "error"
    },
    {
      "inputs": [],
      "name": "FailedInnerCall",
      "type": "error"
    },
    {
      "inputs": [],
      "name": "MCV2_ZapV2__EthTransferFailed",
      "type": "error"
    },
    {
      "inputs": [],
      "name": "MCV2_ZapV2__InvalidAddress",
      "type": "error"
    },
    {
      "inputs": [],
      "name": "MCV2_ZapV2__InvalidAmount",
      "type": "error"
    },
    {
      "inputs": [],
      "name": "MCV2_ZapV2__InvalidReceiver",
      "type": "error"
    },
    {
      "inputs": [],
      "name": "MCV2_ZapV2__InvalidSwapPath",
      "type": "error"
    },
    {
      "inputs": [],
      "name": "MCV2_ZapV2__InvalidToken",
      "type": "error"
    },
    {
      "inputs": [],
      "name": "MCV2_ZapV2__MsgValueMismatch",
      "type": "error"
    },
    {
      "inputs": [],
      "name": "MCV2_ZapV2__NothingToRescue",
      "type": "error"
    },
    {
      "inputs": [],
      "name": "MCV2_ZapV2__SlippageLimitExceeded",
      "type": "error"
    },
    {
      "inputs": [
        {
          "internalType": "address",
          "name": "owner",
          "type": "address"
        }
      ],
      "name": "OwnableInvalidOwner",
      "type": "error"
    },
    {
      "inputs": [
        {
          "internalType": "address",
          "name": "account",
          "type": "address"
        }
      ],
      "name": "OwnableUnauthorizedAccount",
      "type": "error"
    },
    {
      "inputs": [],
      "name": "ReentrancyGuardReentrantCall",
      "type": "error"
    },
    {
      "inputs": [
        {
          "internalType": "address",
          "name": "token",
          "type": "address"
        }
      ],
      "name": "SafeERC20FailedOperation",
      "type": "error"
    },
    {
      "anonymous": false,
      "inputs": [
        {
          "indexed": true,
          "internalType": "address",
          "name": "token",
          "type": "address"
        },
        {
          "indexed": true,
          "internalType": "address",
          "name": "recipient",
          "type": "address"
        },
        {
          "indexed": false,
          "internalType": "uint256",
          "name": "amount",
          "type": "uint256"
        }
      ],
      "name": "EmergencyTokenRescue",
      "type": "event"
    },
    {
      "anonymous": false,
      "inputs": [
        {
          "indexed": true,
          "internalType": "address",
          "name": "previousOwner",
          "type": "address"
        },
        {
          "indexed": true,
          "internalType": "address",
          "name": "newOwner",
          "type": "address"
        }
      ],
      "name": "OwnershipTransferred",
      "type": "event"
    },
    {
      "anonymous": false,
      "inputs": [
        {
          "indexed": true,
          "internalType": "address",
          "name": "token",
          "type": "address"
        },
        {
          "indexed": true,
          "internalType": "address",
          "name": "outputToken",
          "type": "address"
        },
        {
          "indexed": true,
          "internalType": "address",
          "name": "receiver",
          "type": "address"
        },
        {
          "indexed": false,
          "internalType": "uint256",
          "name": "tokensBurned",
          "type": "uint256"
        },
        {
          "indexed": false,
          "internalType": "uint256",
          "name": "outputAmount",
          "type": "uint256"
        },
        {
          "indexed": false,
          "internalType": "uint256",
          "name": "reserveReceived",
          "type": "uint256"
        }
      ],
      "name": "ZapBurn",
      "type": "event"
    },
    {
      "anonymous": false,
      "inputs": [
        {
          "indexed": true,
          "internalType": "address",
          "name": "token",
          "type": "address"
        },
        {
          "indexed": true,
          "internalType": "address",
          "name": "inputToken",
          "type": "address"
        },
        {
          "indexed": true,
          "internalType": "address",
          "name": "receiver",
          "type": "address"
        },
        {
          "indexed": false,
          "internalType": "uint256",
          "name": "inputAmount",
          "type": "uint256"
        },
        {
          "indexed": false,
          "internalType": "uint256",
          "name": "tokensReceived",
          "type": "uint256"
        },
        {
          "indexed": false,
          "internalType": "uint256",
          "name": "reserveUsed",
          "type": "uint256"
        }
      ],
      "name": "ZapMint",
      "type": "event"
    },
    {
      "inputs": [],
      "name": "BOND",
      "outputs": [
        {
          "internalType": "contract MCV2_Bond",
          "name": "",
          "type": "address"
        }
      ],
      "stateMutability": "view",
      "type": "function"
    },
    {
      "inputs": [],
      "name": "UNIVERSAL_ROUTER",
      "outputs": [
        {
          "internalType": "contract IUniversalRouter",
          "name": "",
          "type": "address"
        }
      ],
      "stateMutability": "view",
      "type": "function"
    },
    {
      "inputs": [],
      "name": "WETH",
      "outputs": [
        {
          "internalType": "contract IWETH",
          "name": "",
          "type": "address"
        }
      ],
      "stateMutability": "view",
      "type": "function"
    },
    {
      "inputs": [
        {
          "internalType": "address",
          "name": "token",
          "type": "address"
        },
        {
          "internalType": "uint256",
          "name": "tokensToBurn",
          "type": "uint256"
        }
      ],
      "name": "estimateZapBurn",
      "outputs": [
        {
          "internalType": "uint256",
          "name": "estimatedReserveOut",
          "type": "uint256"
        }
      ],
      "stateMutability": "view",
      "type": "function"
    },
    {
      "inputs": [
        {
          "internalType": "address",
          "name": "token",
          "type": "address"
        },
        {
          "internalType": "uint256",
          "name": "inputAmount",
          "type": "uint256"
        }
      ],
      "name": "estimateZapMint",
      "outputs": [
        {
          "internalType": "uint256",
          "name": "estimatedTokensOut",
          "type": "uint256"
        },
        {
          "internalType": "uint256",
          "name": "estimatedReserveNeeded",
          "type": "uint256"
        }
      ],
      "stateMutability": "view",
      "type": "function"
    },
    {
      "inputs": [
        {
          "internalType": "address",
          "name": "",
          "type": "address"
        },
        {
          "internalType": "address",
          "name": "",
          "type": "address"
        },
        {
          "internalType": "uint256[]",
          "name": "",
          "type": "uint256[]"
        },
        {
          "internalType": "uint256[]",
          "name": "",
          "type": "uint256[]"
        },
        {
          "internalType": "bytes",
          "name": "",
          "type": "bytes"
        }
      ],
      "name": "onERC1155BatchReceived",
      "outputs": [
        {
          "internalType": "bytes4",
          "name": "",
          "type": "bytes4"
        }
      ],
      "stateMutability": "pure",
      "type": "function"
    },
    {
      "inputs": [
        {
          "internalType": "address",
          "name": "",
          "type": "address"
        },
        {
          "internalType": "address",
          "name": "",
          "type": "address"
        },
        {
          "internalType": "uint256",
          "name": "",
          "type": "uint256"
        },
        {
          "internalType": "uint256",
          "name": "",
          "type": "uint256"
        },
        {
          "internalType": "bytes",
          "name": "",
          "type": "bytes"
        }
      ],
      "name": "onERC1155Received",
      "outputs": [
        {
          "internalType": "bytes4",
          "name": "",
          "type": "bytes4"
        }
      ],
      "stateMutability": "pure",
      "type": "function"
    },
    {
      "inputs": [],
      "name": "owner",
      "outputs": [
        {
          "internalType": "address",
          "name": "",
          "type": "address"
        }
      ],
      "stateMutability": "view",
      "type": "function"
    },
    {
      "inputs": [],
      "name": "renounceOwnership",
      "outputs": [],
      "stateMutability": "nonpayable",
      "type": "function"
    },
    {
      "inputs": [
        {
          "internalType": "address",
          "name": "recipient",
          "type": "address"
        }
      ],
      "name": "rescueETH",
      "outputs": [],
      "stateMutability": "nonpayable",
      "type": "function"
    },
    {
      "inputs": [
        {
          "internalType": "address",
          "name": "tokenAddress",
          "type": "address"
        },
        {
          "internalType": "address",
          "name": "recipient",
          "type": "address"
        }
      ],
      "name": "rescueTokens",
      "outputs": [],
      "stateMutability": "nonpayable",
      "type": "function"
    },
    {
      "inputs": [
        {
          "internalType": "address",
          "name": "newOwner",
          "type": "address"
        }
      ],
      "name": "transferOwnership",
      "outputs": [],
      "stateMutability": "nonpayable",
      "type": "function"
    },
    {
      "inputs": [
        {
          "internalType": "address",
          "name": "token",
          "type": "address"
        },
        {
          "internalType": "uint256",
          "name": "tokensToBurn",
          "type": "uint256"
        },
        {
          "internalType": "address",
          "name": "outputToken",
          "type": "address"
        },
        {
          "internalType": "uint256",
          "name": "minOutputAmount",
          "type": "uint256"
        },
        {
          "internalType": "bytes",
          "name": "commands",
          "type": "bytes"
        },
        {
          "internalType": "bytes[]",
          "name": "inputs",
          "type": "bytes[]"
        },
        {
          "internalType": "uint256",
          "name": "deadline",
          "type": "uint256"
        },
        {
          "internalType": "address",
          "name": "receiver",
          "type": "address"
        }
      ],
      "name": "zapBurn",
      "outputs": [
        {
          "internalType": "uint256",
          "name": "outputAmount",
          "type": "uint256"
        },
        {
          "internalType": "uint256",
          "name": "reserveReceived",
          "type": "uint256"
        }
      ],
      "stateMutability": "nonpayable",
      "type": "function"
    },
    {
      "inputs": [
        {
          "internalType": "address",
          "name": "token",
          "type": "address"
        },
        {
          "internalType": "address",
          "name": "inputToken",
          "type": "address"
        },
        {
          "internalType": "uint256",
          "name": "inputAmount",
          "type": "uint256"
        },
        {
          "internalType": "uint256",
          "name": "minTokensOut",
          "type": "uint256"
        },
        {
          "internalType": "bytes",
          "name": "commands",
          "type": "bytes"
        },
        {
          "internalType": "bytes[]",
          "name": "inputs",
          "type": "bytes[]"
        },
        {
          "internalType": "uint256",
          "name": "deadline",
          "type": "uint256"
        },
        {
          "internalType": "address",
          "name": "receiver",
          "type": "address"
        }
      ],
      "name": "zapMint",
      "outputs": [
        {
          "internalType": "uint256",
          "name": "tokensReceived",
          "type": "uint256"
        },
        {
          "internalType": "uint256",
          "name": "reserveUsed",
          "type": "uint256"
        }
      ],
      "stateMutability": "payable",
      "type": "function"
    },
    {
      "stateMutability": "payable",
      "type": "receive"
    }
  ],
  "bytecode": "0x60e034620001ea57601f62002d2738819003918201601f191683019291906001600160401b03841183851017620001ef578160609284926040968752833981010312620001ea57620000518162000205565b6200006c83620000646020850162000205565b930162000205565b903315620001d25760008054336001600160a01b03198216811783558651956001600160a01b0394909385939192918416907f8be0079c531659141344cd1fd0a4f28419497f9722a3daafe3b4186f6b6457e09080a36001805516938415620001c357508116918215620001b25716918215620001a15760805260a05260c05251612b0c90816200021b8239608051818181610473015281816104f3015281816105a9015281816107a70152818161086301528181610a1401528181610ba40152818161100e015281816110c4015281816111380152818161138d01528181611c210152611d49015260a051818181610c4a015281816112310152818161226f015281816129c50152612a58015260c0518181816102d50152818161206c015281816122b10152818161273e01526128920152f35b835163cab6f36f60e01b8152600490fd5b845163cab6f36f60e01b8152600490fd5b63cab6f36f60e01b8152600490fd5b8351631e4fbdf760e01b815260006004820152602490fd5b600080fd5b634e487b7160e01b600052604160045260246000fd5b51906001600160a01b0382168203620001ea5756fe6080604052600436101561001b575b361561001957600080fd5b005b6000803560e01c806304824e7014611511578063248c102214610eb15780635431c94e14610d5c578063715018a614610cbf5780638da5cb5b14610c6e578063ad5c464814610bff578063b6af9e4114610af8578063bc197c8114610a38578063c1c1d218146109c9578063c5ed3e49146102f9578063e8dd7fc31461028a578063f23a6e61146101f9578063f2fde38b146101155763fc06cc83146100c1575061000e565b346101125760407ffffffffffffffffffffffffffffffffffffffffffffffffffffffffffffffffc3601126101125760406101066100fd6115bc565b60243590612a9a565b82519182526020820152f35b80fd5b50346101125760207ffffffffffffffffffffffffffffffffffffffffffffffffffffffffffffffffc3601126101125761014d6115bc565b61015561180c565b73ffffffffffffffffffffffffffffffffffffffff8091169081156101c857600054827fffffffffffffffffffffffff0000000000000000000000000000000000000000821617600055167f8be0079c531659141344cd1fd0a4f28419497f9722a3daafe3b4186f6b6457e0600080a380f35b602483604051907f1e4fbdf70000000000000000000000000000000000000000000000000000000082526004820152fd5b50346101125760a07ffffffffffffffffffffffffffffffffffffffffffffffffffffffffffffffffc360112610112576102316115bc565b5061023a6115df565b5060843567ffffffffffffffff81116102865761025b9036906004016117c5565b5060206040517ff23a6e61000000000000000000000000000000000000000000000000000000008152f35b5080fd5b503461011257807ffffffffffffffffffffffffffffffffffffffffffffffffffffffffffffffffc36011261011257602060405173ffffffffffffffffffffffffffffffffffffffff7f0000000000000000000000000000000000000000000000000000000000000000168152f35b5034610112576101007ffffffffffffffffffffffffffffffffffffffffffffffffffffffffffffffffc360112610112576103326115bc565b73ffffffffffffffffffffffffffffffffffffffff60443516604435036106b05767ffffffffffffffff9160843583811161028657610375903690600401611625565b909360a4359081116109c55761038f903690600401611653565b90610398611602565b926103a1611b68565b73ffffffffffffffffffffffffffffffffffffffff8616156109475773ffffffffffffffffffffffffffffffffffffffff84161561099b5760243515610971576103ea86611bd3565b9673ffffffffffffffffffffffffffffffffffffffff88161561094757604080517fc9cb204b00000000000000000000000000000000000000000000000000000000815273ffffffffffffffffffffffffffffffffffffffff8916600482015260248035908201529690878060448101038173ffffffffffffffffffffffffffffffffffffffff7f0000000000000000000000000000000000000000000000000000000000000000165afa96871561093a578197610908575b506104ad88612647565b156106c8576104d6602435303373ffffffffffffffffffffffffffffffffffffffff8c166124a4565b61052f60243573ffffffffffffffffffffffffffffffffffffffff7f00000000000000000000000000000000000000000000000000000000000000001673ffffffffffffffffffffffffffffffffffffffff8b166118f6565b6040517f5a4d531100000000000000000000000000000000000000000000000000000000815273ffffffffffffffffffffffffffffffffffffffff8916600482015260248035908201526044810188905230606482015290602082806084810103818473ffffffffffffffffffffffffffffffffffffffff7f0000000000000000000000000000000000000000000000000000000000000000165af19081156106bc5750610682575b50928492604098926105f69560c435948960643591604435906126e8565b9273ffffffffffffffffffffffffffffffffffffffff85519216917f0b14d0064c62539fdc4f9d6b0036bfb925fc7a29535bc2efa2ea6b7c5a75658973ffffffffffffffffffffffffffffffffffffffff80604435169316918061066f8789602435846040919493926060820195825260208201520152565b0390a46001805582519182526020820152f35b602090819993959294993d81116106b5575b61069e81836116e3565b810103126106b05792909691386105d8565b600080fd5b503d610694565b604051903d90823e3d90fd5b73ffffffffffffffffffffffffffffffffffffffff88163b1561011257808073ffffffffffffffffffffffffffffffffffffffff60c48b60405194859384927ff242432a000000000000000000000000000000000000000000000000000000008452336004850152306024850152826044850152602435606485015260a060848501528260a4850152165af180156108bb579082916108f4575b50506040517fe985e9c500000000000000000000000000000000000000000000000000000000815230600482015273ffffffffffffffffffffffffffffffffffffffff7f000000000000000000000000000000000000000000000000000000000000000016602482015260208160448173ffffffffffffffffffffffffffffffffffffffff8d165afa9081156108bb5782916108c6575b5061052f5773ffffffffffffffffffffffffffffffffffffffff88163b1561011257808073ffffffffffffffffffffffffffffffffffffffff60448b60405194859384927fa22cb465000000000000000000000000000000000000000000000000000000008452817f000000000000000000000000000000000000000000000000000000000000000016600485015260016024850152165af180156108bb579082916108a7575b505061052f565b6108b090611684565b6101125780386108a0565b6040513d84823e3d90fd5b6108e7915060203d81116108ed575b6108df81836116e3565b810190611a17565b386107f9565b503d6108d5565b6108fd90611684565b610112578038610762565b61092b91975060403d604011610933575b61092381836116e3565b810190611cd0565b5095386104a3565b503d610919565b50604051903d90823e3d90fd5b60046040517f335e0f43000000000000000000000000000000000000000000000000000000008152fd5b60046040517f58985273000000000000000000000000000000000000000000000000000000008152fd5b60046040517f9cd0cf40000000000000000000000000000000000000000000000000000000008152fd5b8280fd5b503461011257807ffffffffffffffffffffffffffffffffffffffffffffffffffffffffffffffffc36011261011257602060405173ffffffffffffffffffffffffffffffffffffffff7f0000000000000000000000000000000000000000000000000000000000000000168152f35b50346101125760a07ffffffffffffffffffffffffffffffffffffffffffffffffffffffffffffffffc36011261011257610a706115bc565b50610a796115df565b5067ffffffffffffffff6044358181116109c557610a9b903690600401611724565b506064358181116109c557610ab4903690600401611724565b5060843590811161028657610acd9036906004016117c5565b5060206040517fbc197c81000000000000000000000000000000000000000000000000000000008152f35b50346101125760407ffffffffffffffffffffffffffffffffffffffffffffffffffffffffffffffffc36011261011257610b8b6040610b356115bc565b81517fc9cb204b00000000000000000000000000000000000000000000000000000000815273ffffffffffffffffffffffffffffffffffffffff9091166004820152602480359082015291829081906044820190565b038173ffffffffffffffffffffffffffffffffffffffff7f0000000000000000000000000000000000000000000000000000000000000000165afa9081156108bb5760209291610bdf575b50604051908152f35b610bf8915060403d6040116109335761092381836116e3565b5038610bd6565b503461011257807ffffffffffffffffffffffffffffffffffffffffffffffffffffffffffffffffc36011261011257602060405173ffffffffffffffffffffffffffffffffffffffff7f0000000000000000000000000000000000000000000000000000000000000000168152f35b503461011257807ffffffffffffffffffffffffffffffffffffffffffffffffffffffffffffffffc3601126101125773ffffffffffffffffffffffffffffffffffffffff6020915416604051908152f35b503461011257807ffffffffffffffffffffffffffffffffffffffffffffffffffffffffffffffffc36011261011257610cf661180c565b600073ffffffffffffffffffffffffffffffffffffffff81547fffffffffffffffffffffffff000000000000000000000000000000000000000081168355167f8be0079c531659141344cd1fd0a4f28419497f9722a3daafe3b4186f6b6457e08280a380f35b50346101125760407ffffffffffffffffffffffffffffffffffffffffffffffffffffffffffffffffc36011261011257610d946115bc565b610d9c6115df565b610da461180c565b73ffffffffffffffffffffffffffffffffffffffff80821692831561099b571690604051907f70a08231000000000000000000000000000000000000000000000000000000008252306004830152602082602481865afa918215610ea6578592610e73575b508115610e495781610e3f7fa5f256ae9cd1864efb5bee78303cc3ce6104f391ee8eeba36e696c156b9c7c01936020938661188d565b604051908152a380f35b60046040517f64b9a8cf000000000000000000000000000000000000000000000000000000008152fd5b9091506020813d8211610e9e575b81610e8e602093836116e3565b810103126106b057519038610e09565b3d9150610e81565b6040513d87823e3d90fd5b506101007ffffffffffffffffffffffffffffffffffffffffffffffffffffffffffffffffc36011261011257610ee56115bc565b90610eee6115df565b67ffffffffffffffff91906084358381116109c557610f11903690600401611625565b94909360a43590811161150d57610f2c903690600401611653565b959094610f37611602565b96610f40611b68565b73ffffffffffffffffffffffffffffffffffffffff8416156109475773ffffffffffffffffffffffffffffffffffffffff88161561099b57604435156109715773ffffffffffffffffffffffffffffffffffffffff85166114dd5760443534036114b3575b610fae84611bd3565b9673ffffffffffffffffffffffffffffffffffffffff88161561094757610fdd9360c435936044358a89612016565b610fe78183611ce6565b94909560643587106114895761104a8673ffffffffffffffffffffffffffffffffffffffff7f00000000000000000000000000000000000000000000000000000000000000001673ffffffffffffffffffffffffffffffffffffffff84166118f6565b6040517ff74bfe8e00000000000000000000000000000000000000000000000000000000815273ffffffffffffffffffffffffffffffffffffffff8086166004830152602482018990526044820188905289166064820152602081806084810103818673ffffffffffffffffffffffffffffffffffffffff7f0000000000000000000000000000000000000000000000000000000000000000165af1801561147e57611453575b50604051602081019083807f095ea7b3000000000000000000000000000000000000000000000000000000009384815273ffffffffffffffffffffffffffffffffffffffff7f000000000000000000000000000000000000000000000000000000000000000016602485015281604485015260448452611170846116c7565b8351908273ffffffffffffffffffffffffffffffffffffffff88165af161119561185d565b81611424575b5080611404575b15611366575b505085808403930361121a575b505060408051604435815260208101879052808201869052909673ffffffffffffffffffffffffffffffffffffffff908116948116931691507fc9849cbe811e31e50453d3971e71695ae287cdcd6b4742b4d5659ec223313ace90806060810161066f565b73ffffffffffffffffffffffffffffffffffffffff7f000000000000000000000000000000000000000000000000000000000000000016908173ffffffffffffffffffffffffffffffffffffffff82161480611348575b1561131b5750803b15610286578180916024604051809481937f2e1a7d4d0000000000000000000000000000000000000000000000000000000083528860048401525af180156108bb5761130c575b5080808093335af16112d061185d565b50156112e2576040945b9438806111b5565b60046040517fa26cec30000000000000000000000000000000000000000000000000000000008152fd5b61131590611684565b386112c0565b611343925060409893915073ffffffffffffffffffffffffffffffffffffffff33911661188d565b6112da565b5073ffffffffffffffffffffffffffffffffffffffff861615611271565b6113e16113fd9260405190602082015273ffffffffffffffffffffffffffffffffffffffff7f0000000000000000000000000000000000000000000000000000000000000000166024820152856044820152604481526113c5816116c7565b73ffffffffffffffffffffffffffffffffffffffff8516611a2f565b73ffffffffffffffffffffffffffffffffffffffff8316611a2f565b38806111a8565b5073ffffffffffffffffffffffffffffffffffffffff83163b15156111a2565b8051801592508215611439575b50503861119b565b61144c9250602080918301019101611a17565b3880611431565b602090813d8311611477575b61146981836116e3565b8101031261028657386110f1565b503d61145f565b6040513d85823e3d90fd5b60046040517f57403b77000000000000000000000000000000000000000000000000000000008152fd5b60046040517ffd99d5c7000000000000000000000000000000000000000000000000000000008152fd5b3415610fa55760046040517ffd99d5c7000000000000000000000000000000000000000000000000000000008152fd5b8380fd5b50346101125760207ffffffffffffffffffffffffffffffffffffffffffffffffffffffffffffffffc360112610112576115496115bc565b61155161180c565b73ffffffffffffffffffffffffffffffffffffffff811690811561099b5747908115610e49578380808481945af161158761185d565b50156112e2577fa5f256ae9cd1864efb5bee78303cc3ce6104f391ee8eeba36e696c156b9c7c0160208492604051908152a380f35b6004359073ffffffffffffffffffffffffffffffffffffffff821682036106b057565b6024359073ffffffffffffffffffffffffffffffffffffffff821682036106b057565b60e4359073ffffffffffffffffffffffffffffffffffffffff821682036106b057565b9181601f840112156106b05782359167ffffffffffffffff83116106b057602083818601950101116106b057565b9181601f840112156106b05782359167ffffffffffffffff83116106b0576020808501948460051b0101116106b057565b67ffffffffffffffff811161169857604052565b7f4e487b7100000000000000000000000000000000000000000000000000000000600052604160045260246000fd5b6080810190811067ffffffffffffffff82111761169857604052565b90601f7fffffffffffffffffffffffffffffffffffffffffffffffffffffffffffffffe0910116810190811067ffffffffffffffff82111761169857604052565b9080601f830112156106b05781359067ffffffffffffffff8211611698578160051b60405193602093611759858401876116e3565b855283808601928201019283116106b0578301905b82821061177c575050505090565b8135815290830190830161176e565b67ffffffffffffffff811161169857601f017fffffffffffffffffffffffffffffffffffffffffffffffffffffffffffffffe01660200190565b81601f820112156106b0578035906117dc8261178b565b926117ea60405194856116e3565b828452602083830101116106b057816000926020809301838601378301015290565b73ffffffffffffffffffffffffffffffffffffffff60005416330361182d57565b60246040517f118cdaa7000000000000000000000000000000000000000000000000000000008152336004820152fd5b3d15611888573d9061186e8261178b565b9161187c60405193846116e3565b82523d6000602084013e565b606090565b6040517fa9059cbb00000000000000000000000000000000000000000000000000000000602082015273ffffffffffffffffffffffffffffffffffffffff9290921660248301526044808301939093529181526118f4916118ef6064836116e3565b611a2f565b565b6040517f095ea7b3000000000000000000000000000000000000000000000000000000006020820181815273ffffffffffffffffffffffffffffffffffffffff851660248401526044808401969096529482529092906119576064856116e3565b73ffffffffffffffffffffffffffffffffffffffff946000808786169287519082855af19061198461185d565b826119e5575b50816119da575b501561199f575b5050505050565b6119d0946118ef9260405192602084015216602482015260006044820152604481526119ca816116c7565b82611a2f565b3880808080611998565b90503b151538611991565b805191925081159182156119fd575b5050903861198a565b611a109250602080918301019101611a17565b38806119f4565b908160209103126106b0575180151581036106b05790565b60008073ffffffffffffffffffffffffffffffffffffffff611a6693169360208151910182865af1611a5f61185d565b9083611ac8565b8051908115159182611aad575b5050611a7c5750565b602490604051907f5274afe70000000000000000000000000000000000000000000000000000000082526004820152fd5b611ac09250602080918301019101611a17565b153880611a73565b90611b075750805115611add57805190602001fd5b60046040517f1425ea42000000000000000000000000000000000000000000000000000000008152fd5b81511580611b5f575b611b18575090565b60249073ffffffffffffffffffffffffffffffffffffffff604051917f9996b315000000000000000000000000000000000000000000000000000000008352166004820152fd5b50803b15611b10565b600260015414611b79576002600155565b60046040517f3ee5aeb5000000000000000000000000000000000000000000000000000000008152fd5b519073ffffffffffffffffffffffffffffffffffffffff821682036106b057565b519061ffff821682036106b057565b60c0602491604051928380927fd9fe0eae00000000000000000000000000000000000000000000000000000000825273ffffffffffffffffffffffffffffffffffffffff80911660048301527f0000000000000000000000000000000000000000000000000000000000000000165afa908115611cc457600091611c55575090565b9060c0823d8211611cbc575b81611c6e60c093836116e3565b8101031261011257611c7f82611ba3565b50611c8c60208301611bc4565b50611c9960408301611bc4565b50606082015164ffffffffff81160361011257506080611cb99101611ba3565b90565b3d9150611c61565b6040513d6000823e3d90fd5b91908260409103126106b0576020825192015190565b604080517f18160ddd0000000000000000000000000000000000000000000000000000000081529392909173ffffffffffffffffffffffffffffffffffffffff8082169260049160209081898581895afa988915611fdc57600099611fe7575b507f000000000000000000000000000000000000000000000000000000000000000016948651907f9cc7becf000000000000000000000000000000000000000000000000000000008252848201528181602481895afa918215611fdc57600092611f86575b50506fffffffffffffffffffffffffffffffff169687811015611f7657600097035b808810611e7d5750508515611e6f5783517f76a9864b00000000000000000000000000000000000000000000000000000000815273ffffffffffffffffffffffffffffffffffffffff90921690820190815260208101869052909183918391908290819060400103915afa918215611e6557600092611e4b57505090565b611e619250803d106109335761092381836116e3565b5090565b513d6000823e3d90fd5b505050509050600090600090565b60018089830301901c88019086517f76a9864b000000000000000000000000000000000000000000000000000000008152878180611ee1868a8a84016020909392919373ffffffffffffffffffffffffffffffffffffffff60408201951681520152565b03818a5afa60009181611f56575b50611f1d5750507fffffffffffffffffffffffffffffffffffffffffffffffffffffffffffffffff01611dcd565b9098908310611f2d575096611dcd565b97507fffffffffffffffffffffffffffffffffffffffffffffffffffffffffffffffff01611dcd565b611f6e919250893d8b116109335761092381836116e3565b509038611eef565b5050505050509050600090600090565b81813d8311611fd5575b611f9a81836116e3565b810103126102865751906fffffffffffffffffffffffffffffffff8216820361011257506fffffffffffffffffffffffffffffffff38611dab565b503d611f90565b87513d6000823e3d90fd5b90988282813d831161200f575b611ffe81836116e3565b810103126101125750519738611d46565b503d611ff4565b96959294919373ffffffffffffffffffffffffffffffffffffffff8080991692831561226557612048873033876124a4565b169586831461225957600097821561222f57871596871561219d5761209390479b5b7f000000000000000000000000000000000000000000000000000000000000000016809661188d565b833b156121995788949392916120da8692604051988997889687957f3593564c0000000000000000000000000000000000000000000000000000000087526004870161255f565b03925af1801561218e5761217b575b50156120ff57505047035b600181106114895790565b6020602491604051928380927f70a082310000000000000000000000000000000000000000000000000000000082523060048301525afa9182156106bc579161214a575b50036120f4565b90506020813d8211612173575b81612164602093836116e3565b810103126106b0575138612143565b3d9150612157565b61218790939193611684565b91386120e9565b6040513d86823e3d90fd5b8880fd5b604051907f70a082310000000000000000000000000000000000000000000000000000000082523060048301526020826024818d5afa8015612224578b906121eb575b61209392509b61206a565b50906020813d821161221c575b81612205602093836116e3565b81010312612218579061209391516121e0565b8a80fd5b3d91506121f8565b6040513d8d823e3d90fd5b60046040517fcdabe807000000000000000000000000000000000000000000000000000000008152fd5b50505050509250505090565b96925080979495977f00000000000000000000000000000000000000000000000000000000000000001696169580871461244b5750801561222f57851596600088156123cc575047985b7f00000000000000000000000000000000000000000000000000000000000000001692833b156106b057612315600096604051988997889687957f3593564c0000000000000000000000000000000000000000000000000000000087526004870161255f565b03925af18015611cc4576123bd575b506000911561233c5750504703600181106114895790565b6020602491604051928380927f70a082310000000000000000000000000000000000000000000000000000000082523060048301525afa9182156106bc578092612389575b5050036120f4565b9091506020823d82116123b5575b816123a4602093836116e3565b810103126101125750513880612381565b3d9150612397565b6123c690611684565b38612324565b6040517f70a082310000000000000000000000000000000000000000000000000000000081523060048201526020816024818c5afa9182156106bc578092612417575b5050986122af565b9091506020823d8211612443575b81612432602093836116e3565b81010312610112575051388061240f565b3d9150612425565b969750505050505050803b156106b057600082916004604051809481937fd0e30db00000000000000000000000000000000000000000000000000000000083525af18015611cc45761249b575090565b611cb990611684565b9290604051927f23b872dd00000000000000000000000000000000000000000000000000000000602085015273ffffffffffffffffffffffffffffffffffffffff809216602485015216604483015260648201526064815260a081019181831067ffffffffffffffff841117611698576118f492604052611a2f565b601f82602094937fffffffffffffffffffffffffffffffffffffffffffffffffffffffffffffffe0938186528686013760008582860101520116010190565b959493919061257691606088526060880191612520565b9060208683038188015281835280830192818360051b82010193856000925b8584106125ab5750505050505060409150930152565b9091929394957fffffffffffffffffffffffffffffffffffffffffffffffffffffffffffffffe082820301845287357fffffffffffffffffffffffffffffffffffffffffffffffffffffffffffffffe1843603018112156106b057830186810191903567ffffffffffffffff81116106b05780360383136106b05761263588928392600195612520565b99019401940192969594939190612595565b602073ffffffffffffffffffffffffffffffffffffffff916004604051809481937f313ce567000000000000000000000000000000000000000000000000000000008352165afa80916000916126ad575b50906126a45750600090565b60ff1660121490565b6020813d82116126e0575b816126c5602093836116e3565b8101031261028657519060ff82168203610112575038612698565b3d91506126b8565b929895909396919773ffffffffffffffffffffffffffffffffffffffff80809516951695858714612a7f576000998715998a80612a54575b6129ae57600096831561222f578b156129285747985b8061288957507f00000000000000000000000000000000000000000000000000000000000000001693843b1561288557906127a6889695949392604051988997889687957f3593564c0000000000000000000000000000000000000000000000000000000087526004870161255f565b03925af180156108bb57908291612871575b50505b84156127f657504703945b8510611489578492156127ec575082809281925af16127e361185d565b50156112e25790565b611cb9935061188d565b6040517f70a08231000000000000000000000000000000000000000000000000000000008152306004820152602081602481875afa9182156106bc5791612840575b5003946127c6565b90506020813d8211612869575b8161285a602093836116e3565b810103126106b0575138612838565b3d915061284d565b61287a90611684565b6101125780386127b8565b8780fd5b9491926128b9917f000000000000000000000000000000000000000000000000000000000000000016809661188d565b833b156129245786949392916129008692604051988997889687957f3593564c0000000000000000000000000000000000000000000000000000000087526004870161255f565b03925af180156108bb57612915575b506127bb565b61291e90611684565b3861290f565b8680fd5b6040517f70a082310000000000000000000000000000000000000000000000000000000081523060048201526020816024818e5afa9081156129a3578991612972575b5098612736565b90506020813d821161299b575b8161298c602093836116e3565b8101031261219957513861296b565b3d915061297f565b6040513d8b823e3d90fd5b50999b9a96505050505093505083106114895784917f000000000000000000000000000000000000000000000000000000000000000016803b156109c55782906024604051809881937f2e1a7d4d0000000000000000000000000000000000000000000000000000000083528860048401525af19485156108bb57839495612a41575b5081809381925af16127e361185d565b612a4d90929192611684565b9038612a31565b50867f0000000000000000000000000000000000000000000000000000000000000000168814612720565b50505050509250509192831061148957611cb991839161188d565b9073ffffffffffffffffffffffffffffffffffffffff612ab983611bd3565b1615612acc57612ac891611ce6565b9091565b505060009060009056fea26469706673582212203eab15f9281d2ce24ed7e4fe63553556f41b2f632e9b59835d46dbd2b3e722e164736f6c63430008140033",
  "linkReferences": {},
  "deployedLinkReferences": {}
}